{
  "abi": [
    {
      "anonymous": false,
      "inputs": [
        {
          "indexed": true,
          "internalType": "uint256",
          "name": "schemeId",
          "type": "uint256"
        },
        {
          "indexed": true,
          "internalType": "address",
          "name": "stealthAddress",
          "type": "address"
        },
        {
          "indexed": false,
          "internalType": "bytes",
          "name": "ephemeralPubKey",
          "type": "bytes"
        },
        {
          "indexed": false,
          "internalType": "bytes",
          "name": "metadata",
          "type": "bytes"
        }
      ],
      "name": "Announcement",
      "type": "event"
    },
    {
      "anonymous": false,
      "inputs": [
        {
          "indexed": true,
          "internalType": "address",
          "name": "account",
          "type": "address"
        },
        {
          "indexed": false,
          "internalType": "uint256",
          "name": "totalStaked",
          "type": "uint256"
        }
      ],
      "name": "StakeDeposit",
      "type": "event"
    },
    {
      "anonymous": false,
      "inputs": [
        {
          "indexed": true,
          "internalType": "address",
          "name": "account",
          "type": "address"
        },
        {
          "indexed": false,
          "internalType": "address",
          "name": "withdrawAddress",
          "type": "address"
        },
        {
          "indexed": false,
          "internalType": "uint256",
          "name": "amount",
          "type": "uint256"
        }
      ],
      "name": "StakeWithdrawal",
      "type": "event"
    },
    {
      "inputs": [
        {
          "internalType": "address",
          "name": "staker",
          "type": "address"
        }
      ],
      "name": "addStake",
      "outputs": [],
      "stateMutability": "payable",
      "type": "function"
    },
    {
      "inputs": [
        {
          "internalType": "uint256",
          "name": "schemeId",
          "type": "uint256"
        },
        {
          "internalType": "address",
          "name": "stealthAddress",
          "type": "address"
        },
        {
          "internalType": "bytes",
          "name": "ephemeralPubKey",
          "type": "bytes"
        },
        {
          "internalType": "bytes",
          "name": "metadata",
          "type": "bytes"
        }
      ],
      "name": "announce",
      "outputs": [],
      "stateMutability": "nonpayable",
      "type": "function"
    },
    {
      "inputs": [
        {
          "internalType": "address",
          "name": "account",
          "type": "address"
        }
      ],
      "name": "balanceOf",
      "outputs": [
        {
          "internalType": "uint256",
          "name": "",
          "type": "uint256"
        }
      ],
      "stateMutability": "view",
      "type": "function"
    },
    {
      "inputs": [
        {
          "internalType": "address",
          "name": "",
          "type": "address"
        }
      ],
      "name": "stakes",
      "outputs": [
        {
          "internalType": "uint256",
          "name": "",
          "type": "uint256"
        }
      ],
      "stateMutability": "view",
      "type": "function"
    },
    {
      "inputs": [
        {
          "internalType": "address payable",
          "name": "withdrawAddress",
          "type": "address"
        }
      ],
      "name": "withdrawStake",
      "outputs": [],
      "stateMutability": "nonpayable",
      "type": "function"
    },
    {
      "stateMutability": "payable",
      "type": "receive"
    }
  ],
  "bytecode": {
    "object": "0x608060405234801561001057600080fd5b506105a8806100206000396000f3fe60806040526004361061004e5760003560e01c8063107679041461006357806316934fc4146100765780634d1f9583146100b557806370a08231146100d5578063c23a5cea1461010b57600080fd5b3661005e5761005c3361012b565b005b600080fd5b61005c610071366004610390565b61012b565b34801561008257600080fd5b506100a3610091366004610390565b60006020819052908152604090205481565b60405190815260200160405180910390f35b3480156100c157600080fd5b5061005c6100d0366004610457565b6101df565b3480156100e157600080fd5b506100a36100f0366004610390565b6001600160a01b031660009081526020819052604090205490565b34801561011757600080fd5b5061005c610126366004610390565b610229565b600034116101715760405162461bcd60e51b815260206004820152600e60248201526d1a5b9d985b1a5908185b5bdd5b9d60921b60448201526064015b60405180910390fd5b6001600160a01b038116600090815260208190526040812080543492906101999084906104d7565b90915550506040513481526001600160a01b038216907f1da2c4060997c108162f55c30ad2268924b069210f8c686ba302e1acc6909ccc9060200160405180910390a250565b826001600160a01b0316847fc161b5d8d13c524d769545162d90b3e4341d89659fa54b3126825f4cabc26582848460405161021b929190610544565b60405180910390a350505050565b336000908152602081905260409020548061027d5760405162461bcd60e51b81526020600482015260146024820152734e6f207374616b6520746f20776974686472617760601b6044820152606401610168565b336000818152602081815260408083209290925581516001600160a01b03861681529081018490527fbf1dba36cbf97f27e9890b9ca95f31d9a0547294828d0f9b25299c090508c7ef910160405180910390a26000826001600160a01b03168260405160006040518083038185875af1925050503d806000811461031d576040519150601f19603f3d011682016040523d82523d6000602084013e610322565b606091505b50509050806103735760405162461bcd60e51b815260206004820152601860248201527f6661696c656420746f207769746864726177207374616b6500000000000000006044820152606401610168565b505050565b6001600160a01b038116811461038d57600080fd5b50565b6000602082840312156103a257600080fd5b81356103ad81610378565b9392505050565b634e487b7160e01b600052604160045260246000fd5b600082601f8301126103db57600080fd5b813567ffffffffffffffff808211156103f6576103f66103b4565b604051601f8301601f19908116603f0116810190828211818310171561041e5761041e6103b4565b8160405283815286602085880101111561043757600080fd5b836020870160208301376000602085830101528094505050505092915050565b6000806000806080858703121561046d57600080fd5b84359350602085013561047f81610378565b9250604085013567ffffffffffffffff8082111561049c57600080fd5b6104a8888389016103ca565b935060608701359150808211156104be57600080fd5b506104cb878288016103ca565b91505092959194509250565b808201808211156104f857634e487b7160e01b600052601160045260246000fd5b92915050565b6000815180845260005b8181101561052457602081850181015186830182015201610508565b506000602082860101526020601f19601f83011685010191505092915050565b60408152600061055760408301856104fe565b828103602084015261056981856104fe565b9594505050505056fea26469706673582212201ba46f014f45b4fd123a5ec6ce81ce6b607d4b4f5de4795eb2a901d14bd173ef64736f6c63430008120033",
    "linkReferences": {}
  },
  "methodIdentifiers": {
    "addStake(address)": "10767904",
    "announce(uint256,address,bytes,bytes)": "4d1f9583",
    "balanceOf(address)": "70a08231",
    "stakes(address)": "16934fc4",
    "withdrawStake(address)": "c23a5cea"
  },
  "id": 20
}