{
  "abi": [
    {
      "inputs": [
        {
          "internalType": "address payable",
          "name": "messengerAddress",
          "type": "address"
        },
        {
          "internalType": "address payable",
          "name": "escrowAddress",
          "type": "address"
        }
      ],
      "stateMutability": "nonpayable",
      "type": "constructor"
    },
    {
      "inputs": [
        {
          "internalType": "address",
          "name": "",
          "type": "address"
        }
      ],
      "name": "escrowFunding",
      "outputs": [
        {
          "internalType": "uint256",
          "name": "",
          "type": "uint256"
        }
      ],
      "stateMutability": "view",
      "type": "function"
    },
    {
      "inputs": [
        {
          "internalType": "address",
          "name": "stealthAddress",
          "type": "address"
        },
        {
          "internalType": "bytes32",
          "name": "r",
          "type": "bytes32"
        },
        {
          "internalType": "bytes32",
          "name": "s",
          "type": "bytes32"
        },
        {
          "internalType": "uint8",
          "name": "v",
          "type": "uint8"
        },
        {
          "internalType": "uint256",
          "name": "random",
          "type": "uint256"
        }
      ],
      "name": "finalizeEscrowPosition",
      "outputs": [],
      "stateMutability": "nonpayable",
      "type": "function"
    },
    {
      "inputs": [
        {
          "internalType": "address",
          "name": "recipient",
          "type": "address"
        },
        {
          "internalType": "bytes",
          "name": "ephemeralPubKey",
          "type": "bytes"
        },
        {
          "internalType": "bytes",
          "name": "metadata",
          "type": "bytes"
        },
        {
          "internalType": "address",
          "name": "requiredSigner",
          "type": "address"
        },
        {
          "internalType": "address",
          "name": "spendingAccount",
          "type": "address"
        },
        {
          "internalType": "uint256",
          "name": "finalGas",
          "type": "uint256"
        }
      ],
      "name": "secureTransferAndStakeAndAnnounce",
      "outputs": [],
      "stateMutability": "payable",
      "type": "function"
    },
    {
      "inputs": [
        {
          "internalType": "address",
          "name": "recipient",
          "type": "address"
        },
        {
          "internalType": "bytes",
          "name": "ephemeralPubKey",
          "type": "bytes"
        },
        {
          "internalType": "bytes",
          "name": "metadata",
          "type": "bytes"
        }
      ],
      "name": "transferAndAnnounce",
      "outputs": [],
      "stateMutability": "payable",
      "type": "function"
    },
    {
      "inputs": [
        {
          "internalType": "address",
          "name": "recipient",
          "type": "address"
        },
        {
          "internalType": "bytes",
          "name": "ephemeralPubKey",
          "type": "bytes"
        },
        {
          "internalType": "bytes",
          "name": "metadata",
          "type": "bytes"
        }
      ],
      "name": "transferAndStakeAndAnnounce",
      "outputs": [],
      "stateMutability": "payable",
      "type": "function"
    }
  ],
  "bytecode": {
    "object": "0x608060405234801561001057600080fd5b50604051610b94380380610b9483398101604081905261002f9161007c565b600080546001600160a01b039384166001600160a01b031991821617909155600180549290931691161790556100af565b80516001600160a01b038116811461007757600080fd5b919050565b6000806040838503121561008f57600080fd5b61009883610060565b91506100a660208401610060565b90509250929050565b610ad6806100be6000396000f3fe60806040526004361061004a5760003560e01c806306cd12a81461004f578063085749781461007157806390f2f88c146100b0578063b34e2591146100c3578063bce9d5a4146100d6575b600080fd5b34801561005b57600080fd5b5061006f61006a36600461075d565b6100e9565b005b34801561007d57600080fd5b5061009e61008c3660046107b3565b60026020526000908152604090205481565b60405190815260200160405180910390f35b61006f6100be366004610878565b61016d565b61006f6100d13660046108ec565b610258565b61006f6100e4366004610878565b61051f565b6001546040516351df8e0b60e01b81526001600160a01b038781166004830152602482018790526044820186905260ff8516606483015260848201849052909116906351df8e0b9060a401600060405180830381600087803b15801561014e57600080fd5b505af1158015610162573d6000803e3d6000fd5b505050505050505050565b600054604051634d1f958360e01b81526001600160a01b0390911690634d1f9583906101a4906001908790879087906004016109d0565b600060405180830381600087803b1580156101be57600080fd5b505af11580156101d2573d6000803e3d6000fd5b505050506000836001600160a01b03163460405160006040518083038185875af1925050503d8060008114610223576040519150601f19603f3d011682016040523d82523d6000602084013e610228565b606091505b50509050806102525760405162461bcd60e51b815260040161024990610a17565b60405180910390fd5b50505050565b600080546040516370a0823160e01b81523360048201526001600160a01b03909116906370a0823190602401602060405180830381865afa1580156102a1573d6000803e3d6000fd5b505050506040513d601f19601f820116820180604052508101906102c59190610a45565b6000036103945766038d7ea4c680003410156103145760405162461bcd60e51b815260206004820152600e60248201526d0dcdee840cadcdeeaced0408aa8960931b6044820152606401610249565b60005460405163041d9e4160e21b81523360048201526001600160a01b039091169063107679049066038d7ea4c68000906024016000604051808303818588803b15801561036157600080fd5b505af1158015610375573d6000803e3d6000fd5b505050505066038d7ea4c680003461038d9190610a74565b9050610397565b50345b6103a18282610a74565b90506000836001600160a01b03168360405160006040518083038185875af1925050503d80600081146103f0576040519150601f19603f3d011682016040523d82523d6000602084013e6103f5565b606091505b50509050806104165760405162461bcd60e51b815260040161024990610a17565b6001600160a01b0384166000908152600260205260408120805485929061043e908490610a8d565b9091555050600054604051634d1f958360e01b81526001600160a01b0390911690634d1f95839061047a906002908c908c908c906004016109d0565b600060405180830381600087803b15801561049457600080fd5b505af11580156104a8573d6000803e3d6000fd5b50506001546040516334cd929960e21b81526001600160a01b038c811660048301528981166024830152909116925063d3364a64915084906044016000604051808303818588803b1580156104fc57600080fd5b505af1158015610510573d6000803e3d6000fd5b50505050505050505050505050565b600080546040516370a0823160e01b81523360048201526001600160a01b03909116906370a0823190602401602060405180830381865afa158015610568573d6000803e3d6000fd5b505050506040513d601f19601f8201168201806040525081019061058c9190610a45565b60000361065b5766038d7ea4c680003410156105db5760405162461bcd60e51b815260206004820152600e60248201526d0dcdee840cadcdeeaced0408aa8960931b6044820152606401610249565b60005460405163041d9e4160e21b81523360048201526001600160a01b039091169063107679049066038d7ea4c68000906024016000604051808303818588803b15801561062857600080fd5b505af115801561063c573d6000803e3d6000fd5b505050505066038d7ea4c68000346106549190610a74565b905061065e565b50345b600054604051634d1f958360e01b81526001600160a01b0390911690634d1f958390610695906001908890889088906004016109d0565b600060405180830381600087803b1580156106af57600080fd5b505af11580156106c3573d6000803e3d6000fd5b505050506000846001600160a01b03168260405160006040518083038185875af1925050503d8060008114610714576040519150601f19603f3d011682016040523d82523d6000602084013e610719565b606091505b505090508061073a5760405162461bcd60e51b815260040161024990610a17565b5050505050565b80356001600160a01b038116811461075857600080fd5b919050565b600080600080600060a0868803121561077557600080fd5b61077e86610741565b94506020860135935060408601359250606086013560ff811681146107a257600080fd5b949793965091946080013592915050565b6000602082840312156107c557600080fd5b6107ce82610741565b9392505050565b634e487b7160e01b600052604160045260246000fd5b600082601f8301126107fc57600080fd5b813567ffffffffffffffff80821115610817576108176107d5565b604051601f8301601f19908116603f0116810190828211818310171561083f5761083f6107d5565b8160405283815286602085880101111561085857600080fd5b836020870160208301376000602085830101528094505050505092915050565b60008060006060848603121561088d57600080fd5b61089684610741565b9250602084013567ffffffffffffffff808211156108b357600080fd5b6108bf878388016107eb565b935060408601359150808211156108d557600080fd5b506108e2868287016107eb565b9150509250925092565b60008060008060008060c0878903121561090557600080fd5b61090e87610741565b9550602087013567ffffffffffffffff8082111561092b57600080fd5b6109378a838b016107eb565b9650604089013591508082111561094d57600080fd5b5061095a89828a016107eb565b94505061096960608801610741565b925061097760808801610741565b915060a087013590509295509295509295565b6000815180845260005b818110156109b057602081850181015186830182015201610994565b506000602082860101526020601f19601f83011685010191505092915050565b8481526001600160a01b03841660208201526080604082018190526000906109fa9083018561098a565b8281036060840152610a0c818561098a565b979650505050505050565b6020808252601490820152732330b4b632b2103a379039b2b7321022ba3432b960611b604082015260600190565b600060208284031215610a5757600080fd5b5051919050565b634e487b7160e01b600052601160045260246000fd5b81810381811115610a8757610a87610a5e565b92915050565b80820180821115610a8757610a87610a5e56fea264697066735822122090cdf846ec3c865cb24b0c428390f82f77a455dfc0d3c26429d318e37acf339764736f6c63430008130033",
    "linkReferences": {}
  },
  "methodIdentifiers": {
    "escrowFunding(address)": "08574978",
    "finalizeEscrowPosition(address,bytes32,bytes32,uint8,uint256)": "06cd12a8",
    "secureTransferAndStakeAndAnnounce(address,bytes,bytes,address,address,uint256)": "b34e2591",
    "transferAndAnnounce(address,bytes,bytes)": "90f2f88c",
    "transferAndStakeAndAnnounce(address,bytes,bytes)": "bce9d5a4"
  },
  "id": 19
}