{
  "abi": [
    {
      "inputs": [],
      "stateMutability": "nonpayable",
      "type": "constructor"
    },
    {
      "inputs": [],
      "name": "AlreadyRegistered",
      "type": "error"
    },
    {
      "anonymous": false,
      "inputs": [
        {
          "indexed": true,
          "internalType": "address",
          "name": "registrant",
          "type": "address"
        },
        {
          "indexed": false,
          "internalType": "bytes",
          "name": "spendPub",
          "type": "bytes"
        },
        {
          "indexed": false,
          "internalType": "bytes",
          "name": "viewPub",
          "type": "bytes"
        }
      ],
      "name": "StealthKeyRegistered",
      "type": "event"
    },
    {
      "inputs": [
        {
          "internalType": "address",
          "name": "user",
          "type": "address"
        }
      ],
      "name": "checkRegistered",
      "outputs": [
        {
          "internalType": "bool",
          "name": "",
          "type": "bool"
        }
      ],
      "stateMutability": "view",
      "type": "function"
    },
    {
      "inputs": [
        {
          "internalType": "bytes",
          "name": "_spendPub",
          "type": "bytes"
        }
      ],
      "name": "checkValidAndRegistered",
      "outputs": [
        {
          "internalType": "bool",
          "name": "",
          "type": "bool"
        }
      ],
      "stateMutability": "view",
      "type": "function"
    },
    {
      "inputs": [
        {
          "internalType": "address",
          "name": "user",
          "type": "address"
        }
      ],
      "name": "getMeta",
      "outputs": [
        {
          "internalType": "bytes",
          "name": "",
          "type": "bytes"
        },
        {
          "internalType": "bytes",
          "name": "",
          "type": "bytes"
        }
      ],
      "stateMutability": "view",
      "type": "function"
    },
    {
      "inputs": [
        {
          "internalType": "bytes",
          "name": "_spendPub",
          "type": "bytes"
        },
        {
          "internalType": "bytes",
          "name": "_viewPub",
          "type": "bytes"
        }
      ],
      "name": "registerKey",
      "outputs": [],
      "stateMutability": "nonpayable",
      "type": "function"
    }
  ],
  "bytecode": {
    "object": "0x608060405234801561001057600080fd5b5061084e806100206000396000f3fe608060405234801561001057600080fd5b506004361061004c5760003560e01c80630f43d7aa1461005157806335d4fa221461007b57806375ce011d1461009e578063ee2574af146100b3575b600080fd5b61006461005f3660046104e7565b6100c6565b60405161007292919061055d565b60405180910390f35b61008e61008936600461062e565b610217565b6040519015158152602001610072565b6100b16100ac36600461066b565b6102da565b005b61008e6100c13660046104e7565b6104af565b6001600160a01b0381166000908152602081815260408083208380529091528082206001835291208154606092839290918290610102906106cf565b80601f016020809104026020016040519081016040528092919081815260200182805461012e906106cf565b801561017b5780601f106101505761010080835404028352916020019161017b565b820191906000526020600020905b81548152906001019060200180831161015e57829003601f168201915b5050505050915080805461018e906106cf565b80601f01602080910402602001604051908101604052809291908181526020018280546101ba906106cf565b80156102075780601f106101dc57610100808354040283529160200191610207565b820191906000526020600020905b8154815290600101906020018083116101ea57829003601f168201915b5050505050905091509150915091565b33600090815260208181526040808320838052909152812080546102d4919061023f906106cf565b80601f016020809104026020016040519081016040528092919081815260200182805461026b906106cf565b80156102b85780601f1061028d576101008083540402835291602001916102b8565b820191906000526020600020905b81548152906001019060200180831161029b57829003601f168201915b5050505050838051602091820120825192909101919091201490565b92915050565b3360009081526020818152604080832083805290915290208054610302919061023f906106cf565b1561032057604051630ea075bf60e21b815260040160405180910390fd5b33600090815260208181526040808320838052909152902080546104049190610348906106cf565b80601f0160208091040260200160405190810160405280929190818152602001828054610374906106cf565b80156103c15780601f10610396576101008083540402835291602001916103c1565b820191906000526020600020905b8154815290600101906020018083116103a457829003601f168201915b50506040805160208082019092526000905284519401939093207fc5d2460186f7233c927e7db2dcc703c0e500b653ca82273b7bfad8045d85a470149392505050565b61042157604051630ea075bf60e21b815260040160405180910390fd5b3360009081526020818152604080832083805290915290206104438382610758565b50336000908152602081815260408083206001845290915290206104678282610758565b50336001600160a01b03167fb8d263f4e88db0e6120d082148383deb812416cae1dda66bffe0097f5e65468e83836040516104a392919061055d565b60405180910390a25050565b6001600160a01b038116600090815260208181526040808320838052909152812080546104e09190610348906106cf565b1592915050565b6000602082840312156104f957600080fd5b81356001600160a01b038116811461051057600080fd5b9392505050565b6000815180845260005b8181101561053d57602081850181015186830182015201610521565b506000602082860101526020601f19601f83011685010191505092915050565b6040815260006105706040830185610517565b82810360208401526105828185610517565b95945050505050565b634e487b7160e01b600052604160045260246000fd5b600082601f8301126105b257600080fd5b813567ffffffffffffffff808211156105cd576105cd61058b565b604051601f8301601f19908116603f011681019082821181831017156105f5576105f561058b565b8160405283815286602085880101111561060e57600080fd5b836020870160208301376000602085830101528094505050505092915050565b60006020828403121561064057600080fd5b813567ffffffffffffffff81111561065757600080fd5b610663848285016105a1565b949350505050565b6000806040838503121561067e57600080fd5b823567ffffffffffffffff8082111561069657600080fd5b6106a2868387016105a1565b935060208501359150808211156106b857600080fd5b506106c5858286016105a1565b9150509250929050565b600181811c908216806106e357607f821691505b60208210810361070357634e487b7160e01b600052602260045260246000fd5b50919050565b601f82111561075357600081815260208120601f850160051c810160208610156107305750805b601f850160051c820191505b8181101561074f5782815560010161073c565b5050505b505050565b815167ffffffffffffffff8111156107725761077261058b565b6107868161078084546106cf565b84610709565b602080601f8311600181146107bb57600084156107a35750858301515b600019600386901b1c1916600185901b17855561074f565b600085815260208120601f198616915b828110156107ea578886015182559484019460019091019084016107cb565b50858210156108085787850151600019600388901b60f8161c191681555b5050505050600190811b0190555056fea26469706673582212209166ad81dda1b0f9060555960bf6e02bf50513b7148bd08b8187f70613d9670c64736f6c63430008120033",
    "linkReferences": {}
  },
  "methodIdentifiers": {
    "checkRegistered(address)": "ee2574af",
    "checkValidAndRegistered(bytes)": "35d4fa22",
    "getMeta(address)": "0f43d7aa",
    "registerKey(bytes,bytes)": "75ce011d"
  },
  "id": 16
}