{
  "abi": [
    {
      "inputs": [],
      "stateMutability": "nonpayable",
      "type": "constructor"
    },
    {
      "inputs": [],
      "name": "AlreadyRegistered",
      "type": "error"
    },
    {
      "anonymous": false,
      "inputs": [
        {
          "indexed": true,
          "internalType": "address",
          "name": "registrant",
          "type": "address"
        },
        {
          "indexed": false,
          "internalType": "address",
          "name": "spendPub",
          "type": "address"
        },
        {
          "indexed": false,
          "internalType": "address",
          "name": "viewPub",
          "type": "address"
        }
      ],
      "name": "StealthKeyRegistered",
      "type": "event"
    },
    {
      "inputs": [
        {
          "internalType": "address",
          "name": "_spendPub",
          "type": "address"
        },
        {
          "internalType": "address",
          "name": "_viewPub",
          "type": "address"
        }
      ],
      "name": "registerKey",
      "outputs": [],
      "stateMutability": "nonpayable",
      "type": "function"
    }
  ],
  "bytecode": {
    "object": "0x608060405234801561001057600080fd5b50610190806100206000396000f3fe608060405234801561001057600080fd5b506004361061002b5760003560e01c806362e4eb6014610030575b600080fd5b61004361003e366004610127565b610045565b005b336000908152602081815260408083208380529091529020546001600160a01b03161561008557604051630ea075bf60e21b815260040160405180910390fd5b33600081815260208181526040808320838052825280832080546001600160a01b038881166001600160a01b031992831681179093556001865294839020805495881695909116851790558151908152918201929092527fee0cef006de9ebade9edc4d9dbb1aea4d38b8a7074a0bcc98f8dee03eac2fba9910160405180910390a25050565b80356001600160a01b038116811461012257600080fd5b919050565b6000806040838503121561013a57600080fd5b6101438361010b565b91506101516020840161010b565b9050925092905056fea2646970667358221220a1afffad02b8718d7687b75d8edf02e1e73ebaa17bea8a38eb2eddbeea7c2fed64736f6c63430008120033",
    "linkReferences": {}
  },
  "methodIdentifiers": {
    "registerKey(address,address)": "62e4eb60"
  },
  "id": 20
}