{
  "abi": [
    {
      "inputs": [
        {
          "internalType": "address payable",
          "name": "messengerAddress",
          "type": "address"
        },
        {
          "internalType": "address payable",
          "name": "escrowAddress",
          "type": "address"
        }
      ],
      "stateMutability": "nonpayable",
      "type": "constructor"
    },
    {
      "inputs": [
        {
          "internalType": "uint256",
          "name": "",
          "type": "uint256"
        }
      ],
      "name": "HashedStealthAddresses",
      "outputs": [
        {
          "internalType": "uint256",
          "name": "",
          "type": "uint256"
        }
      ],
      "stateMutability": "view",
      "type": "function"
    },
    {
      "inputs": [
        {
          "internalType": "address",
          "name": "",
          "type": "address"
        }
      ],
      "name": "escrowFunding",
      "outputs": [
        {
          "internalType": "uint256",
          "name": "",
          "type": "uint256"
        }
      ],
      "stateMutability": "view",
      "type": "function"
    },
    {
      "inputs": [
        {
          "internalType": "address",
          "name": "stealthAddress",
          "type": "address"
        },
        {
          "internalType": "bytes32",
          "name": "r",
          "type": "bytes32"
        },
        {
          "internalType": "bytes32",
          "name": "s",
          "type": "bytes32"
        },
        {
          "internalType": "uint8",
          "name": "v",
          "type": "uint8"
        },
        {
          "internalType": "uint256",
          "name": "random",
          "type": "uint256"
        }
      ],
      "name": "finalizeEscrowPosition",
      "outputs": [],
      "stateMutability": "nonpayable",
      "type": "function"
    },
    {
      "inputs": [
        {
          "internalType": "address",
          "name": "recipient",
          "type": "address"
        },
        {
          "internalType": "bytes",
          "name": "ephemeralPubKey",
          "type": "bytes"
        },
        {
          "internalType": "bytes",
          "name": "metadata",
          "type": "bytes"
        },
        {
          "internalType": "address",
          "name": "requiredSigner",
          "type": "address"
        },
        {
          "internalType": "address",
          "name": "spendingAccount",
          "type": "address"
        },
        {
          "internalType": "uint256",
          "name": "finalGas",
          "type": "uint256"
        }
      ],
      "name": "secureTransferAndAnnounce",
      "outputs": [],
      "stateMutability": "payable",
      "type": "function"
    },
    {
      "inputs": [
        {
          "internalType": "address",
          "name": "recipient",
          "type": "address"
        },
        {
          "internalType": "bytes",
          "name": "ephemeralPubKey",
          "type": "bytes"
        },
        {
          "internalType": "bytes",
          "name": "metadata",
          "type": "bytes"
        }
      ],
      "name": "transferAndAnnounce",
      "outputs": [],
      "stateMutability": "payable",
      "type": "function"
    }
  ],
  "bytecode": {
    "object": "0x608060405234801561001057600080fd5b506040516109d53803806109d583398101604081905261002f9161007c565b600080546001600160a01b039384166001600160a01b031991821617909155600180549290931691161790556100af565b80516001600160a01b038116811461007757600080fd5b919050565b6000806040838503121561008f57600080fd5b61009883610060565b91506100a660208401610060565b90509250929050565b610917806100be6000396000f3fe60806040526004361061004a5760003560e01c806306cd12a81461004f578063085749781461007157806335abb6d5146100b057806390f2f88c146100d0578063eee64792146100e3575b600080fd5b34801561005b57600080fd5b5061006f61006a3660046105b3565b6100f6565b005b34801561007d57600080fd5b5061009e61008c366004610609565b60036020526000908152604090205481565b60405190815260200160405180910390f35b3480156100bc57600080fd5b5061009e6100cb36600461062b565b61017a565b61006f6100de3660046106e7565b61019b565b61006f6100f136600461075b565b6102a9565b6001546040516351df8e0b60e01b81526001600160a01b038781166004830152602482018790526044820186905260ff8516606483015260848201849052909116906351df8e0b9060a401600060405180830381600087803b15801561015b57600080fd5b505af115801561016f573d6000803e3d6000fd5b505050505050505050565b6002818154811061018a57600080fd5b600091825260209091200154905081565b600054604051634d1f958360e01b81526001600160a01b0390911690634d1f9583906101d29060019087908790879060040161083f565b600060405180830381600087803b1580156101ec57600080fd5b505af1158015610200573d6000803e3d6000fd5b505050506000836001600160a01b03163460405160006040518083038185875af1925050503d8060008114610251576040519150601f19603f3d011682016040523d82523d6000602084013e610256565b606091505b50509050806102a35760405162461bcd60e51b81526020600482015260146024820152732330b4b632b2103a379039b2b7321022ba3432b960611b60448201526064015b60405180910390fd5b50505050565b600080546040516370a0823160e01b81523360048201526001600160a01b03909116906370a0823190602401602060405180830381865afa1580156102f2573d6000803e3d6000fd5b505050506040513d601f19601f820116820180604052508101906103169190610886565b6000036103e55766038d7ea4c680003410156103655760405162461bcd60e51b815260206004820152600e60248201526d0dcdee840cadcdeeaced0408aa8960931b604482015260640161029a565b60005460405163041d9e4160e21b81523360048201526001600160a01b039091169063107679049066038d7ea4c68000906024016000604051808303818588803b1580156103b257600080fd5b505af11580156103c6573d6000803e3d6000fd5b505050505066038d7ea4c68000346103de91906108b5565b90506103e8565b50345b6103f282826108b5565b90506000836001600160a01b03168360405160006040518083038185875af1925050503d8060008114610441576040519150601f19603f3d011682016040523d82523d6000602084013e610446565b606091505b505090508061048e5760405162461bcd60e51b81526020600482015260146024820152732330b4b632b2103a379039b2b7321022ba3432b960611b604482015260640161029a565b6001600160a01b038416600090815260036020526040812080548592906104b69084906108ce565b9091555050600054604051634d1f958360e01b81526001600160a01b0390911690634d1f9583906104f2906002908c908c908c9060040161083f565b600060405180830381600087803b15801561050c57600080fd5b505af1158015610520573d6000803e3d6000fd5b50506001546040516334cd929960e21b81526001600160a01b038c811660048301528981166024830152909116925063d3364a64915084906044016000604051808303818588803b15801561057457600080fd5b505af1158015610588573d6000803e3d6000fd5b50505050505050505050505050565b80356001600160a01b03811681146105ae57600080fd5b919050565b600080600080600060a086880312156105cb57600080fd5b6105d486610597565b94506020860135935060408601359250606086013560ff811681146105f857600080fd5b949793965091946080013592915050565b60006020828403121561061b57600080fd5b61062482610597565b9392505050565b60006020828403121561063d57600080fd5b5035919050565b634e487b7160e01b600052604160045260246000fd5b600082601f83011261066b57600080fd5b813567ffffffffffffffff8082111561068657610686610644565b604051601f8301601f19908116603f011681019082821181831017156106ae576106ae610644565b816040528381528660208588010111156106c757600080fd5b836020870160208301376000602085830101528094505050505092915050565b6000806000606084860312156106fc57600080fd5b61070584610597565b9250602084013567ffffffffffffffff8082111561072257600080fd5b61072e8783880161065a565b9350604086013591508082111561074457600080fd5b506107518682870161065a565b9150509250925092565b60008060008060008060c0878903121561077457600080fd5b61077d87610597565b9550602087013567ffffffffffffffff8082111561079a57600080fd5b6107a68a838b0161065a565b965060408901359150808211156107bc57600080fd5b506107c989828a0161065a565b9450506107d860608801610597565b92506107e660808801610597565b915060a087013590509295509295509295565b6000815180845260005b8181101561081f57602081850181015186830182015201610803565b506000602082860101526020601f19601f83011685010191505092915050565b8481526001600160a01b0384166020820152608060408201819052600090610869908301856107f9565b828103606084015261087b81856107f9565b979650505050505050565b60006020828403121561089857600080fd5b5051919050565b634e487b7160e01b600052601160045260246000fd5b818103818111156108c8576108c861089f565b92915050565b808201808211156108c8576108c861089f56fea2646970667358221220a513f38cbf9d1cc85c1bcf48e8c1de911c12c288cdd2a3d0720b44b18dd9d5aa64736f6c63430008120033",
    "linkReferences": {}
  },
  "methodIdentifiers": {
    "HashedStealthAddresses(uint256)": "35abb6d5",
    "escrowFunding(address)": "08574978",
    "finalizeEscrowPosition(address,bytes32,bytes32,uint8,uint256)": "06cd12a8",
    "secureTransferAndAnnounce(address,bytes,bytes,address,address,uint256)": "eee64792",
    "transferAndAnnounce(address,bytes,bytes)": "90f2f88c"
  },
  "id": 19
}