{
  "abi": [
    {
      "inputs": [],
      "stateMutability": "nonpayable",
      "type": "constructor"
    },
    {
      "anonymous": false,
      "inputs": [
        {
          "indexed": true,
          "internalType": "address",
          "name": "stealthRecipient",
          "type": "address"
        },
        {
          "indexed": false,
          "internalType": "bytes",
          "name": "announcement",
          "type": "bytes"
        }
      ],
      "name": "Annoucement",
      "type": "event"
    },
    {
      "anonymous": false,
      "inputs": [
        {
          "indexed": true,
          "internalType": "address",
          "name": "registrant",
          "type": "address"
        },
        {
          "indexed": false,
          "internalType": "uint256",
          "name": "pubKeyPrefix",
          "type": "uint256"
        },
        {
          "indexed": false,
          "internalType": "uint256",
          "name": "pubKey",
          "type": "uint256"
        }
      ],
      "name": "StealthKeyChanged",
      "type": "event"
    },
    {
      "inputs": [],
      "name": "AA",
      "outputs": [
        {
          "internalType": "uint256",
          "name": "",
          "type": "uint256"
        }
      ],
      "stateMutability": "view",
      "type": "function"
    },
    {
      "inputs": [],
      "name": "BB",
      "outputs": [
        {
          "internalType": "uint256",
          "name": "",
          "type": "uint256"
        }
      ],
      "stateMutability": "view",
      "type": "function"
    },
    {
      "inputs": [],
      "name": "GX",
      "outputs": [
        {
          "internalType": "uint256",
          "name": "",
          "type": "uint256"
        }
      ],
      "stateMutability": "view",
      "type": "function"
    },
    {
      "inputs": [],
      "name": "GY",
      "outputs": [
        {
          "internalType": "uint256",
          "name": "",
          "type": "uint256"
        }
      ],
      "stateMutability": "view",
      "type": "function"
    },
    {
      "inputs": [],
      "name": "PP",
      "outputs": [
        {
          "internalType": "uint256",
          "name": "",
          "type": "uint256"
        }
      ],
      "stateMutability": "view",
      "type": "function"
    },
    {
      "inputs": [
        {
          "internalType": "address",
          "name": "stealthRecipient",
          "type": "address"
        },
        {
          "internalType": "bytes",
          "name": "publishableData",
          "type": "bytes"
        }
      ],
      "name": "emitAnnoucement",
      "outputs": [],
      "stateMutability": "nonpayable",
      "type": "function"
    },
    {
      "inputs": [
        {
          "internalType": "uint256",
          "name": "secret",
          "type": "uint256"
        },
        {
          "internalType": "address",
          "name": "target",
          "type": "address"
        }
      ],
      "name": "generateStealthAddress",
      "outputs": [
        {
          "internalType": "uint256",
          "name": "",
          "type": "uint256"
        },
        {
          "internalType": "uint256",
          "name": "",
          "type": "uint256"
        },
        {
          "internalType": "address",
          "name": "",
          "type": "address"
        }
      ],
      "stateMutability": "view",
      "type": "function"
    },
    {
      "inputs": [
        {
          "internalType": "address",
          "name": "_registrant",
          "type": "address"
        },
        {
          "internalType": "uint256",
          "name": "_PubKeyX",
          "type": "uint256"
        },
        {
          "internalType": "uint256",
          "name": "_PubKeyY",
          "type": "uint256"
        }
      ],
      "name": "registerKey",
      "outputs": [],
      "stateMutability": "nonpayable",
      "type": "function"
    },
    {
      "inputs": [
        {
          "internalType": "address",
          "name": "_registrant",
          "type": "address"
        }
      ],
      "name": "stealthKeys",
      "outputs": [
        {
          "internalType": "uint256",
          "name": "PubKeyX",
          "type": "uint256"
        },
        {
          "internalType": "uint256",
          "name": "PubKeyY",
          "type": "uint256"
        }
      ],
      "stateMutability": "view",
      "type": "function"
    }
  ],
  "bytecode": {
    "object": "0x608060405234801561001057600080fd5b50610d6f806100206000396000f3fe608060405234801561001057600080fd5b50600436106100935760003560e01c80635d25535f116100665780635d25535f146101025780637a308a4c14610139578063997da8d414610160578063cec2a78714610168578063eeeac01e146101b857600080fd5b806303a507be146100985780632490cf24146100d257806354158831146100e75780635727dc5c146100fa575b600080fd5b6100bf7f79be667ef9dcbbac55a06295ce870b07029bfcdb2dce28d959f2815b16f8179881565b6040519081526020015b60405180910390f35b6100e56100e0366004610b8e565b6101c5565b005b6100e56100f5366004610c11565b61020d565b6100bf600781565b610115610110366004610c44565b61026f565b6040805193845260208401929092526001600160a01b0316908201526060016100c9565b6100bf7f483ada7726a3c4655da4fbfc0e1108a8fd17b448a68554199c47d08ffb10d4b881565b6100bf600081565b6101a3610176366004610c70565b6001600160a01b031660009081526020818152604080832083805290915280822054600183529120549091565b604080519283526020830191909152016100c9565b6100bf6401000003d01981565b826001600160a01b03167f75ea3a22e6c3f9d2de8054fdab906dc661f9c1d0c5b176da9dd46894318419f18383604051610200929190610c92565b60405180910390a2505050565b6001600160a01b0383166000818152602081815260408083208380528252808320869055600183529182902084905581518581529081018490527f84ff54d81e881bf44fdeb7e207285a95b3aceeeffbc6cea92e4e58da2705a5889101610200565b6001600160a01b038116600090815260208181526040808320838052909152808220546001835290822054829182916000806102f5897f79be667ef9dcbbac55a06295ce870b07029bfcdb2dce28d959f2815b16f817987f483ada7726a3c4655da4fbfc0e1108a8fd17b448a68554199c47d08ffb10d4b860006401000003d0196103f8565b915091506000806103108b878760006401000003d0196103f8565b9150915060008282604051602001610332929190918252602082015260400190565b6040516020818303038152906040528051906020012090506103a18160001c7f79be667ef9dcbbac55a06295ce870b07029bfcdb2dce28d959f2815b16f817987f483ada7726a3c4655da4fbfc0e1108a8fd17b448a68554199c47d08ffb10d4b860006401000003d0196103f8565b90935091506103bb8787858560006401000003d019610432565b6040805160208082019490945280820192909252805180830382018152606090920190528051910120949c939b5093995091975050505050505050565b600080600080600061040f8a8a8a60018b8b6104ba565b9250925092506104218383838961053c565b945094505050509550959350505050565b6000806000806000888b0361048257858061044f5761044f610cc1565b888b0860000361046857600080945094505050506104af565b6104768b8b60018a8a6105ab565b9194509250905061049b565b6104938b8b60018c8c60018c61074e565b919450925090505b6104a78383838961053c565b945094505050505b965096945050505050565b6000806000886000036104d4575086915085905084610530565b8860008060015b8315610527576001841615610501576104f98383838f8f8f8e61074e565b919450925090505b61050c600285610ced565b935061051b8c8c8c8c8c6105ab565b919d509b5099506104db565b91955093509150505b96509650969350505050565b600080600061054b8585610a86565b90506000848061055d5761055d610cc1565b82830990506000858061057257610572610cc1565b828a0990506000868061058757610587610cc1565b878061059557610595610cc1565b8486098a09919a91995090975050505050505050565b6000806000856000036105c5575086915085905084610743565b600084806105d5576105d5610cc1565b898a099050600085806105ea576105ea610cc1565b898a099050600086806105ff576105ff610cc1565b898a0990506000878061061457610614610cc1565b888061062257610622610cc1565b848e0960040990506000888061063a5761063a610cc1565b898061064857610648610cc1565b8a8061065657610656610cc1565b8586098c098a8061066957610669610cc1565b87600309089050888061067e5761067e610cc1565b898061068c5761068c610cc1565b838408610699908b610d0f565b8a806106a7576106a7610cc1565b83840908945088806106bb576106bb610cc1565b89806106c9576106c9610cc1565b8a806106d7576106d7610cc1565b8687096008096106e7908b610d0f565b8a806106f5576106f5610cc1565b8b8061070357610703610cc1565b61070d898e610d0f565b86088409089350888061072257610722610cc1565b898061073057610730610cc1565b8c8e096002099497509295509293505050505b955095509592505050565b600080808915801561075e575088155b15610770575085915084905083610a79565b8615801561077c575085155b1561078e575088915087905086610a79565b610796610b54565b84806107a4576107a4610cc1565b898a09815284806107b7576107b7610cc1565b81518a09602082015284806107ce576107ce610cc1565b868709604082015284806107e4576107e4610cc1565b604082015187096060820152604080516080810190915280868061080a5761080a610cc1565b60408401518e098152602001868061082457610824610cc1565b60608401518d098152602001868061083e5761083e610cc1565b83518b098152602001868061085557610855610cc1565b60208401518a0990526040810151815191925014158061087d57506060810151602082015114155b6108ce5760405162461bcd60e51b815260206004820152601e60248201527f557365206a6163446f75626c652066756e6374696f6e20696e7374656164000060448201526064015b60405180910390fd5b6108d6610b54565b85806108e4576108e4610cc1565b82516108f09088610d0f565b6040840151088152858061090657610906610cc1565b60208301516109159088610d0f565b6060840151086020820152858061092e5761092e610cc1565b815180096040820152858061094557610945610cc1565b815160408301510960608201526000868061096257610962610cc1565b60608301516109719089610d0f565b888061097f5761097f610cc1565b60208501518009089050868061099757610997610cc1565b87806109a5576109a5610cc1565b88806109b3576109b3610cc1565b60408501518651096002096109c89089610d0f565b82089050600087806109dc576109dc610cc1565b88806109ea576109ea610cc1565b6109f4848b610d0f565b8a80610a0257610a02610cc1565b60408701518851090860208501510990508780610a2157610a21610cc1565b8880610a2f57610a2f610cc1565b6060850151602087015109610a44908a610d0f565b8208905060008880610a5857610a58610cc1565b8980610a6657610a66610cc1565b8b8f098551099297509095509093505050505b9750975097945050505050565b60008215801590610a975750818314155b8015610aa257508115155b610adf5760405162461bcd60e51b815260206004820152600e60248201526d24b73b30b634b210373ab6b132b960911b60448201526064016108c5565b6000600183825b8615610b4757610af68783610ced565b9050828680610b0757610b07610cc1565b8780610b1557610b15610cc1565b858409610b229089610d0f565b8608909450925086610b348183610d22565b610b3e9084610d0f565b97509150610ae6565b5091925050505b92915050565b60405180608001604052806004906020820280368337509192915050565b80356001600160a01b0381168114610b8957600080fd5b919050565b600080600060408486031215610ba357600080fd5b610bac84610b72565b9250602084013567ffffffffffffffff80821115610bc957600080fd5b818601915086601f830112610bdd57600080fd5b813581811115610bec57600080fd5b876020828501011115610bfe57600080fd5b6020830194508093505050509250925092565b600080600060608486031215610c2657600080fd5b610c2f84610b72565b95602085013595506040909401359392505050565b60008060408385031215610c5757600080fd5b82359150610c6760208401610b72565b90509250929050565b600060208284031215610c8257600080fd5b610c8b82610b72565b9392505050565b60208152816020820152818360408301376000818301604090810191909152601f909201601f19160101919050565b634e487b7160e01b600052601260045260246000fd5b634e487b7160e01b600052601160045260246000fd5b600082610d0a57634e487b7160e01b600052601260045260246000fd5b500490565b81810381811115610b4e57610b4e610cd7565b8082028115828204841417610b4e57610b4e610cd756fea26469706673582212203de0aea568c872f53167e67892018d454d0a62becda26ba903e5e7fdb979d5ad64736f6c63430008130033",
    "linkReferences": {}
  },
  "methodIdentifiers": {
    "AA()": "997da8d4",
    "BB()": "5727dc5c",
    "GX()": "03a507be",
    "GY()": "7a308a4c",
    "PP()": "eeeac01e",
    "emitAnnoucement(address,bytes)": "2490cf24",
    "generateStealthAddress(uint256,address)": "5d25535f",
    "registerKey(address,uint256,uint256)": "54158831",
    "stealthKeys(address)": "cec2a787"
  },
  "id": 19
}