{
  "abi": [
    {
      "inputs": [
        {
          "internalType": "address",
          "name": "stealthAddress",
          "type": "address"
        },
        {
          "internalType": "bytes32",
          "name": "r",
          "type": "bytes32"
        },
        {
          "internalType": "bytes32",
          "name": "s",
          "type": "bytes32"
        },
        {
          "internalType": "uint8",
          "name": "v",
          "type": "uint8"
        },
        {
          "internalType": "uint256",
          "name": "random",
          "type": "uint256"
        }
      ],
      "name": "finalizePosition",
      "outputs": [],
      "stateMutability": "nonpayable",
      "type": "function"
    },
    {
      "inputs": [
        {
          "internalType": "address",
          "name": "stealthAddress",
          "type": "address"
        },
        {
          "internalType": "address",
          "name": "requiredSigner",
          "type": "address"
        }
      ],
      "name": "initiatePosition",
      "outputs": [],
      "stateMutability": "payable",
      "type": "function"
    },
    {
      "inputs": [
        {
          "internalType": "address",
          "name": "",
          "type": "address"
        },
        {
          "internalType": "address",
          "name": "",
          "type": "address"
        }
      ],
      "name": "positions",
      "outputs": [
        {
          "internalType": "uint256",
          "name": "",
          "type": "uint256"
        }
      ],
      "stateMutability": "view",
      "type": "function"
    },
    {
      "inputs": [
        {
          "internalType": "address",
          "name": "stealthAddress",
          "type": "address"
        },
        {
          "internalType": "bytes32",
          "name": "r",
          "type": "bytes32"
        },
        {
          "internalType": "bytes32",
          "name": "s",
          "type": "bytes32"
        },
        {
          "internalType": "uint8",
          "name": "v",
          "type": "uint8"
        },
        {
          "internalType": "uint256",
          "name": "random",
          "type": "uint256"
        }
      ],
      "name": "rescuePosition",
      "outputs": [],
      "stateMutability": "nonpayable",
      "type": "function"
    }
  ],
  "bytecode": {
    "object": "0x608060405234801561001057600080fd5b50610526806100206000396000f3fe60806040526004361061003f5760003560e01c80634bd214451461004457806351df8e0b1461008b578063b85d084c146100ad578063d3364a64146100cd575b600080fd5b34801561005057600080fd5b5061007961005f366004610440565b600060208181529281526040808220909352908152205481565b60405190815260200160405180910390f35b34801561009757600080fd5b506100ab6100a6366004610473565b6100e0565b005b3480156100b957600080fd5b506100ab6100c8366004610473565b610221565b6100ab6100db366004610440565b6102e5565b60006100ef8686868686610323565b6001600160a01b03808216600090815260208181526040808320938b16835292905220549091506101605760405162461bcd60e51b81526020600482015260166024820152754e6f20636c61696d61626c6520706f736974696f6e7360501b60448201526064015b60405180910390fd5b6001600160a01b03818116600090815260208181526040808320938a1680845293909152808220805490839055905190929083908381818185875af1925050503d80600081146101cc576040519150601f19603f3d011682016040523d82523d6000602084013e6101d1565b606091505b50509050806102175760405162461bcd60e51b81526020600482015260126024820152716661696c656420746f2066696e616c697a6560701b6044820152606401610157565b5050505050505050565b60006102308686868686610323565b6001600160a01b03818116600081815260208181526040808320948c1683529390528281208054908290559251939450919283908381818185875af1925050503d806000811461029c576040519150601f19603f3d011682016040523d82523d6000602084013e6102a1565b606091505b50509050806102175760405162461bcd60e51b815260206004820152601060248201526f6661696c656420746f2072657363756560801b6044820152606401610157565b6001600160a01b038082166000908152602081815260408083209386168352929052908120805434929061031a9084906104c9565b90915550505050565b6040516bffffffffffffffffffffffff19606087901b1660208201526034810182905260009081906054016040516020818303038152906040528051906020012090506000816040516020016103a591907f19457468657265756d205369676e6564204d6573736167653a0a3332000000008152601c810191909152603c0190565b60408051601f1981840301815282825280516020918201206000845290830180835281905260ff8816918301919091526060820189905260808201889052915060019060a0016020604051602081039080840390855afa15801561040d573d6000803e3d6000fd5b5050604051601f1901519998505050505050505050565b80356001600160a01b038116811461043b57600080fd5b919050565b6000806040838503121561045357600080fd5b61045c83610424565b915061046a60208401610424565b90509250929050565b600080600080600060a0868803121561048b57600080fd5b61049486610424565b94506020860135935060408601359250606086013560ff811681146104b857600080fd5b949793965091946080013592915050565b808201808211156104ea57634e487b7160e01b600052601160045260246000fd5b9291505056fea2646970667358221220ea3e73ddf758fa0f777bd601eb52d884657b58da8fe3a71fea09c86fcd50654864736f6c63430008120033",
    "linkReferences": {}
  },
  "methodIdentifiers": {
    "finalizePosition(address,bytes32,bytes32,uint8,uint256)": "51df8e0b",
    "initiatePosition(address,address)": "d3364a64",
    "positions(address,address)": "4bd21445",
    "rescuePosition(address,bytes32,bytes32,uint8,uint256)": "b85d084c"
  },
  "id": 19
}